{
  "contractName": "CandidateLib",
  "abi": [
    {
      "constant": true,
      "inputs": [
        {
          "name": "candidate",
          "type": "CandidateLib.Candidate storage"
        }
      ],
      "name": "getVotes",
      "outputs": [
        {
          "name": "",
          "type": "uint256"
        }
      ],
      "payable": false,
      "stateMutability": "view",
      "type": "function"
    },
    {
      "constant": false,
      "inputs": [
        {
          "name": "candidate",
          "type": "CandidateLib.Candidate storage"
        }
      ],
      "name": "addVote",
      "outputs": [],
      "payable": false,
      "stateMutability": "nonpayable",
      "type": "function"
    }
  ],
  "bytecode": "0x610136610030600b82828239805160001a6073146000811461002057610022565bfe5b5030600052607381538281f3fe7300000000000000000000000000000000000000003014608060405260043610610063576000357c0100000000000000000000000000000000000000000000000000000000900463ffffffff1680636652e62114610068578063b2f9d6da146100aa575b600080fd5b6100946004803603602081101561007e57600080fd5b81019080803590602001909291905050506100e5565b6040518082815260200191505060405180910390f35b8180156100b657600080fd5b506100e3600480360360208110156100cd57600080fd5b81019080803590602001909291905050506100f3565b005b600081600001549050919050565b80600001600081548092919060010191905055505056fea165627a7a7230582023a2eab72a1621fc82e6d5e742d8dcf820f78acf1b6129301b4035cbe61f7e8e0029",
  "source": "pragma solidity ^0.5.0;\n\nlibrary CandidateLib{\n    struct Candidate{\n        uint256 votes;\n    }\n\n    function getVotes(Candidate storage candidate) public view returns(uint256) {\n        return candidate.votes;\n    }\n\n    function addVote(Candidate storage candidate) public {\n        candidate.votes++;\n    }\n}\n\ncontract Voting {\n   CandidateLib.Candidate candidate1;\n   CandidateLib.Candidate candidate2;\n    bool private stopped = false;\n\n   uint256 start = 0;\n   bool isVotingInitiated = false;\n\n   mapping(address => bool) public voted;\n\n   address owner;\n\n   constructor() public {\n        owner = msg.sender;\n    }\n\n    modifier stopInEmergency {\n        require(!stopped);\n        _;\n    }\n\n   modifier OnlyOwner(){\n        require(msg.sender == owner);\n        _;\n    }\n\n    function stopContract() OnlyOwner private{\n        stopped = !stopped;\n    }\n\n     modifier NotVoted(){\n        require(voted[msg.sender]!=true);\n        _;\n    }\n\n    modifier VoteOngoing{\n        require(now < start + 4 minutes);\n        _;\n    }\n\n    modifier VoteEnded{\n        require(now >= start + 4 minutes);\n        _;\n    }\n\n    modifier VoteStarted{\n        require(start!=0);\n        _;\n    }\n\n    modifier VoteNotStarted{\n        require(start==0);\n        _;\n    }\n\n   function startVote() OnlyOwner VoteNotStarted stopInEmergency public{\n        start = now;\n        isVotingInitiated = true;\n   }\n\n   function addCandidate1Vote() NotVoted VoteStarted VoteOngoing stopInEmergency public {\n        CandidateLib.addVote(candidate1);\n        voted[msg.sender] = true;\n   }\n\n   function addCandidate2Vote() NotVoted VoteStarted VoteOngoing stopInEmergency public{\n       CandidateLib.addVote(candidate2);\n       voted[msg.sender] = true;\n   }\n\n   function getCandidate1Votes() VoteEnded public view returns(uint256) {\n       return CandidateLib.getVotes(candidate1);\n   }\n\n   function getCandidate2Votes() VoteEnded public view  returns(uint256) {\n       return CandidateLib.getVotes(candidate2);\n   }\n\n    function getIsVotingInitiated() public view returns(bool){\n        return isVotingInitiated;\n    }\n\n    function isContractStopped() public view returns(bool){\n        return stopped;\n    }\n}",
  "sourcePath": "/media/fiveko/HDD/Documents/Blockchain-Development/Exam-Projects/Decentralized-Voting/contracts/Voting.sol",
  "compiler": {
    "name": "solc",
    "version": "0.5.0+commit.1d4f565a.Emscripten.clang"
  },
  "schemaVersion": "3.0.3",
  "updatedAt": "2019-04-04T19:42:06.591Z",
  "devdoc": {
    "methods": {}
  },
  "userdoc": {
    "methods": {}
  }
}