{
  "contractName": "Voting",
  "abi": [
    {
      "inputs": [],
      "payable": false,
      "stateMutability": "nonpayable",
      "type": "constructor"
    },
    {
      "constant": false,
      "inputs": [],
      "name": "startVote",
      "outputs": [],
      "payable": false,
      "stateMutability": "nonpayable",
      "type": "function"
    },
    {
      "constant": false,
      "inputs": [],
      "name": "addHillaryVote",
      "outputs": [],
      "payable": false,
      "stateMutability": "nonpayable",
      "type": "function"
    },
    {
      "constant": false,
      "inputs": [],
      "name": "addTrumpVote",
      "outputs": [],
      "payable": false,
      "stateMutability": "nonpayable",
      "type": "function"
    },
    {
      "constant": true,
      "inputs": [],
      "name": "getTrumpVotes",
      "outputs": [
        {
          "name": "",
          "type": "uint256"
        }
      ],
      "payable": false,
      "stateMutability": "view",
      "type": "function"
    },
    {
      "constant": true,
      "inputs": [],
      "name": "getHillaryVotes",
      "outputs": [
        {
          "name": "",
          "type": "uint256"
        }
      ],
      "payable": false,
      "stateMutability": "view",
      "type": "function"
    },
    {
      "constant": false,
      "inputs": [],
      "name": "resetVote",
      "outputs": [],
      "payable": false,
      "stateMutability": "nonpayable",
      "type": "function"
    }
  ],
  "bytecode": "0x6080604052600080556000600155600060025534801561001e57600080fd5b5033600460006101000a81548173ffffffffffffffffffffffffffffffffffffffff021916908373ffffffffffffffffffffffffffffffffffffffff16021790555061045e8061006f6000396000f3fe608060405260043610610078576000357c0100000000000000000000000000000000000000000000000000000000900463ffffffff1680630b71cb281461007d578063329a8cfa146100a85780634c0a6af0146100bf5780636428007a146100d657806377c686e9146100ed5780638f1c71bc14610104575b600080fd5b34801561008957600080fd5b5061009261012f565b6040518082815260200191505060405180910390f35b3480156100b457600080fd5b506100bd61014d565b005b3480156100cb57600080fd5b506100d46101ce565b005b3480156100e257600080fd5b506100eb610233565b005b3480156100f957600080fd5b50610102610323565b005b34801561011057600080fd5b50610119610414565b6040518082815260200191505060405180910390f35b6000603c60025401421015151561014557600080fd5b600154905090565b600460009054906101000a900473ffffffffffffffffffffffffffffffffffffffff1673ffffffffffffffffffffffffffffffffffffffff163373ffffffffffffffffffffffffffffffffffffffff161415156101a957600080fd5b603c6002540142101515156101bd57600080fd5b600060018190555060008081905550565b600460009054906101000a900473ffffffffffffffffffffffffffffffffffffffff1673ffffffffffffffffffffffffffffffffffffffff163373ffffffffffffffffffffffffffffffffffffffff1614151561022a57600080fd5b42600281905550565b60011515600360003373ffffffffffffffffffffffffffffffffffffffff1673ffffffffffffffffffffffffffffffffffffffff16815260200190815260200160002060009054906101000a900460ff1615151415151561029357600080fd5b6000600254141515156102a557600080fd5b603c60025401421015156102b857600080fd5b60008081548092919060010191905055506001600360003373ffffffffffffffffffffffffffffffffffffffff1673ffffffffffffffffffffffffffffffffffffffff16815260200190815260200160002060006101000a81548160ff021916908315150217905550565b60011515600360003373ffffffffffffffffffffffffffffffffffffffff1673ffffffffffffffffffffffffffffffffffffffff16815260200190815260200160002060009054906101000a900460ff1615151415151561038357600080fd5b60006002541415151561039557600080fd5b603c60025401421015156103a857600080fd5b6001600081548092919060010191905055506001600360003373ffffffffffffffffffffffffffffffffffffffff1673ffffffffffffffffffffffffffffffffffffffff16815260200190815260200160002060006101000a81548160ff021916908315150217905550565b6000603c60025401421015151561042a57600080fd5b60005490509056fea165627a7a7230582035d6a430e82154cd4cebb08f5dc50535256f2d12ea9bd06dd0ccb29add6aceec0029",
  "source": "pragma solidity ^0.5.0;\n\ncontract Voting {\n   uint256 votesForTrump = 0;\n   uint256 votesForHillary = 0;\n   uint start = 0;\n   mapping(address => bool) voted;\n\n   address owner;\n\n   constructor() public {\n        owner = msg.sender;\n    }\n\n   modifier OnlyOwner(){\n        require(msg.sender == owner);\n        _;\n    }\n\n     modifier NotVoted(){\n        require(voted[msg.sender]!=true);\n        _;\n    }\n\n    modifier VoteOngoing{\n        require(now < start + 1 minutes);\n        _;\n    }\n\n    modifier VoteEnded{\n        require(now >= start + 1 minutes);\n        _;\n    }\n\n    modifier VoteStarted{\n        require(start!=0);\n        _;\n    }\n\n   function startVote() OnlyOwner public{\n        start = now;\n   }\n\n   function addHillaryVote() NotVoted VoteStarted VoteOngoing public{\n       votesForHillary++;\n       voted[msg.sender] = true;\n   }\n\n   function addTrumpVote() NotVoted VoteStarted VoteOngoing public {\n       votesForTrump++;\n        voted[msg.sender] = true;\n   }\n\n   function getTrumpVotes() VoteEnded public view returns(uint256) {\n       return votesForTrump;\n   }\n\n   function getHillaryVotes() VoteEnded public view  returns(uint256) {\n       return votesForHillary;\n   }\n\n   function resetVote() OnlyOwner VoteEnded public{\n       votesForHillary = 0;\n       votesForTrump = 0;\n   }\n}",
  "sourcePath": "/media/fiveko/HDD/Documents/Blockchain-Development/Before-Exam/Decentralized-Voting/contracts/Voting.sol",
  "compiler": {
    "name": "solc",
    "version": "0.5.0+commit.1d4f565a.Emscripten.clang"
  },
  "schemaVersion": "3.0.3",
  "updatedAt": "2019-04-02T23:44:10.846Z",
  "devdoc": {
    "methods": {}
  },
  "userdoc": {
    "methods": {}
  }
}