{
  "contractName": "Voting",
  "abi": [
    {
      "constant": false,
      "inputs": [],
      "name": "addHillaryVote",
      "outputs": [],
      "payable": false,
      "stateMutability": "nonpayable",
      "type": "function"
    },
    {
      "constant": false,
      "inputs": [],
      "name": "addTrumpVote",
      "outputs": [],
      "payable": false,
      "stateMutability": "nonpayable",
      "type": "function"
    },
    {
      "constant": true,
      "inputs": [],
      "name": "getTrumpVotes",
      "outputs": [
        {
          "name": "",
          "type": "uint256"
        }
      ],
      "payable": false,
      "stateMutability": "view",
      "type": "function"
    },
    {
      "constant": true,
      "inputs": [],
      "name": "getHillaryVotes",
      "outputs": [
        {
          "name": "",
          "type": "uint256"
        }
      ],
      "payable": false,
      "stateMutability": "view",
      "type": "function"
    },
    {
      "constant": true,
      "inputs": [],
      "name": "getWinner",
      "outputs": [
        {
          "name": "",
          "type": "string"
        }
      ],
      "payable": false,
      "stateMutability": "view",
      "type": "function"
    }
  ],
  "bytecode": "0x608060405260008055600060015534801561001957600080fd5b506102cd806100296000396000f3fe60806040526004361061006d576000357c0100000000000000000000000000000000000000000000000000000000900463ffffffff1680630b71cb28146100725780636428007a1461009d57806377c686e9146100b45780638e7ea5b2146100cb5780638f1c71bc1461015b575b600080fd5b34801561007e57600080fd5b50610087610186565b6040518082815260200191505060405180910390f35b3480156100a957600080fd5b506100b2610190565b005b3480156100c057600080fd5b506100c96101a3565b005b3480156100d757600080fd5b506100e06101b7565b6040518080602001828103825283818151815260200191508051906020019080838360005b83811015610120578082015181840152602081019050610105565b50505050905090810190601f16801561014d5780820380516001836020036101000a031916815260200191505b509250505060405180910390f35b34801561016757600080fd5b50610170610298565b6040518082815260200191505060405180910390f35b6000600154905090565b6000808154809291906001019190505550565b600160008154809291906001019190505550565b60606001546000541115610202576040805190810160405280600581526020017f7472756d700000000000000000000000000000000000000000000000000000008152509050610295565b600154600054141561024b576040805190810160405280600381526020017f74696500000000000000000000000000000000000000000000000000000000008152509050610295565b6001546000541015610294576040805190810160405280600781526020017f68696c6c617279000000000000000000000000000000000000000000000000008152509050610295565b5b90565b6000805490509056fea165627a7a72305820ef33976392d7070a032ce434db6fdecfa99c5a3e44f023bff702691f5ea1480f0029",
  "source": "pragma solidity ^0.5.0;\n\ncontract Voting {\n   uint256 votesForTrump = 0;\n   uint256 votesForHillary = 0;\n\n   function addHillaryVote() public{\n       votesForHillary++;\n   }\n\n   function addTrumpVote() public{\n       votesForTrump++;\n   }\n\n   function getTrumpVotes()  public view returns(uint256){\n       return votesForTrump;\n   }\n\n   function getHillaryVotes() public view returns(uint256){\n       return votesForHillary;\n   }\n\n   function getWinner() public view returns (string memory){\n       if(votesForTrump>votesForHillary){\n          return \"trump\";\n       }else if(votesForTrump==votesForHillary){\n          return \"tie\";\n       }else if(votesForTrump<votesForHillary){\n           return \"hillary\";\n       }\n   }\n}",
  "sourcePath": "/media/fiveko/HDD/Documents/Blockchain-Development/Before-Exam/pet-shop-box/contracts/Voting.sol",
  "compiler": {
    "name": "solc",
    "version": "0.5.0+commit.1d4f565a.Emscripten.clang"
  },
  "schemaVersion": "3.0.3",
  "updatedAt": "2019-03-31T11:28:00.517Z",
  "devdoc": {
    "methods": {}
  },
  "userdoc": {
    "methods": {}
  }
}