{
  "contractName": "Voting",
  "abi": [
    {
      "constant": true,
      "inputs": [
        {
          "name": "",
          "type": "address"
        }
      ],
      "name": "voted",
      "outputs": [
        {
          "name": "",
          "type": "bool"
        }
      ],
      "payable": false,
      "stateMutability": "view",
      "type": "function"
    },
    {
      "inputs": [],
      "payable": false,
      "stateMutability": "nonpayable",
      "type": "constructor"
    },
    {
      "constant": false,
      "inputs": [],
      "name": "startVote",
      "outputs": [],
      "payable": false,
      "stateMutability": "nonpayable",
      "type": "function"
    },
    {
      "constant": false,
      "inputs": [],
      "name": "addHillaryVote",
      "outputs": [],
      "payable": false,
      "stateMutability": "nonpayable",
      "type": "function"
    },
    {
      "constant": false,
      "inputs": [],
      "name": "addTrumpVote",
      "outputs": [],
      "payable": false,
      "stateMutability": "nonpayable",
      "type": "function"
    },
    {
      "constant": true,
      "inputs": [],
      "name": "getTrumpVotes",
      "outputs": [
        {
          "name": "",
          "type": "uint256"
        }
      ],
      "payable": false,
      "stateMutability": "view",
      "type": "function"
    },
    {
      "constant": true,
      "inputs": [],
      "name": "getHillaryVotes",
      "outputs": [
        {
          "name": "",
          "type": "uint256"
        }
      ],
      "payable": false,
      "stateMutability": "view",
      "type": "function"
    },
    {
      "constant": true,
      "inputs": [],
      "name": "getIsVotingInitiated",
      "outputs": [
        {
          "name": "",
          "type": "bool"
        }
      ],
      "payable": false,
      "stateMutability": "view",
      "type": "function"
    }
  ],
  "bytecode": "0x608060405260008055600060015560006002556000600360006101000a81548160ff02191690831515021790555034801561003957600080fd5b5033600560006101000a81548173ffffffffffffffffffffffffffffffffffffffff021916908373ffffffffffffffffffffffffffffffffffffffff1602179055506104cc8061008a6000396000f3fe608060405260043610610083576000357c0100000000000000000000000000000000000000000000000000000000900463ffffffff1680630b71cb2814610088578063189d6116146100b35780634c0a6af0146100e25780636428007a146100f957806377c686e9146101105780638f1c71bc14610127578063aec2ccae14610152575b600080fd5b34801561009457600080fd5b5061009d6101bb565b6040518082815260200191505060405180910390f35b3480156100bf57600080fd5b506100c86101d9565b604051808215151515815260200191505060405180910390f35b3480156100ee57600080fd5b506100f76101f0565b005b34801561010557600080fd5b5061010e610281565b005b34801561011c57600080fd5b50610125610371565b005b34801561013357600080fd5b5061013c610462565b6040518082815260200191505060405180910390f35b34801561015e57600080fd5b506101a16004803603602081101561017557600080fd5b81019080803573ffffffffffffffffffffffffffffffffffffffff169060200190929190505050610480565b604051808215151515815260200191505060405180910390f35b600060f06002540142101515156101d157600080fd5b600154905090565b6000600360009054906101000a900460ff16905090565b600560009054906101000a900473ffffffffffffffffffffffffffffffffffffffff1673ffffffffffffffffffffffffffffffffffffffff163373ffffffffffffffffffffffffffffffffffffffff1614151561024c57600080fd5b600060025414151561025d57600080fd5b426002819055506001600360006101000a81548160ff021916908315150217905550565b60011515600460003373ffffffffffffffffffffffffffffffffffffffff1673ffffffffffffffffffffffffffffffffffffffff16815260200190815260200160002060009054906101000a900460ff161515141515156102e157600080fd5b6000600254141515156102f357600080fd5b60f0600254014210151561030657600080fd5b60008081548092919060010191905055506001600460003373ffffffffffffffffffffffffffffffffffffffff1673ffffffffffffffffffffffffffffffffffffffff16815260200190815260200160002060006101000a81548160ff021916908315150217905550565b60011515600460003373ffffffffffffffffffffffffffffffffffffffff1673ffffffffffffffffffffffffffffffffffffffff16815260200190815260200160002060009054906101000a900460ff161515141515156103d157600080fd5b6000600254141515156103e357600080fd5b60f060025401421015156103f657600080fd5b6001600081548092919060010191905055506001600460003373ffffffffffffffffffffffffffffffffffffffff1673ffffffffffffffffffffffffffffffffffffffff16815260200190815260200160002060006101000a81548160ff021916908315150217905550565b600060f060025401421015151561047857600080fd5b600054905090565b60046020528060005260406000206000915054906101000a900460ff168156fea165627a7a72305820ca15a0a11bcdd445f096861ce6b11a951beea67725992f1a363242861513e4880029",
  "source": "pragma solidity ^0.5.0;\n\ncontract Voting {\n   uint256 votesForTrump = 0;\n   uint256 votesForHillary = 0;\n   uint256 start = 0;\n   bool isVotingInitiated = false;\n   mapping(address => bool) public voted;\n\n   address owner;\n\n   constructor() public {\n        owner = msg.sender;\n    }\n\n   modifier OnlyOwner(){\n        require(msg.sender == owner);\n        _;\n    }\n\n     modifier NotVoted(){\n        require(voted[msg.sender]!=true);\n        _;\n    }\n\n    modifier VoteOngoing{\n        require(now < start + 4 minutes);\n        _;\n    }\n\n    modifier VoteEnded{\n        require(now >= start + 4 minutes);\n        _;\n    }\n\n    modifier VoteStarted{\n        require(start!=0);\n        _;\n    }\n\n    modifier VoteNotStarted{\n        require(start==0);\n        _;\n    }\n\n   function startVote() OnlyOwner VoteNotStarted public{\n        start = now;\n        isVotingInitiated = true;\n   }\n\n   function addHillaryVote() NotVoted VoteStarted VoteOngoing public{\n       votesForHillary++;\n       voted[msg.sender] = true;\n   }\n\n   function addTrumpVote() NotVoted VoteStarted VoteOngoing public {\n       votesForTrump++;\n        voted[msg.sender] = true;\n   }\n\n   function getTrumpVotes() VoteEnded public view returns(uint256) {\n       return votesForTrump;\n   }\n\n   function getHillaryVotes() VoteEnded public view  returns(uint256) {\n       return votesForHillary;\n   }\n\n    function getIsVotingInitiated() public view returns(bool){\n        return isVotingInitiated;\n    }\n}",
  "sourcePath": "/media/fiveko/HDD/Documents/Blockchain-Development/Before-Exam/Decentralized-Voting/contracts/Voting.sol",
  "compiler": {
    "name": "solc",
    "version": "0.5.0+commit.1d4f565a.Emscripten.clang"
  },
  "schemaVersion": "3.0.3",
  "updatedAt": "2019-04-04T00:10:12.028Z",
  "devdoc": {
    "methods": {}
  },
  "userdoc": {
    "methods": {}
  }
}