{
  "contractName": "Voting",
  "abi": [
    {
      "constant": true,
      "inputs": [
        {
          "name": "",
          "type": "address"
        }
      ],
      "name": "voted",
      "outputs": [
        {
          "name": "",
          "type": "bool"
        }
      ],
      "payable": false,
      "stateMutability": "view",
      "type": "function"
    },
    {
      "inputs": [],
      "payable": false,
      "stateMutability": "nonpayable",
      "type": "constructor"
    },
    {
      "constant": false,
      "inputs": [],
      "name": "startVote",
      "outputs": [],
      "payable": false,
      "stateMutability": "nonpayable",
      "type": "function"
    },
    {
      "constant": false,
      "inputs": [],
      "name": "addCandidate1Vote",
      "outputs": [],
      "payable": false,
      "stateMutability": "nonpayable",
      "type": "function"
    },
    {
      "constant": false,
      "inputs": [],
      "name": "addCandidate2Vote",
      "outputs": [],
      "payable": false,
      "stateMutability": "nonpayable",
      "type": "function"
    },
    {
      "constant": true,
      "inputs": [],
      "name": "getCandidate1Votes",
      "outputs": [
        {
          "name": "",
          "type": "uint256"
        }
      ],
      "payable": false,
      "stateMutability": "view",
      "type": "function"
    },
    {
      "constant": true,
      "inputs": [],
      "name": "getCandidate2Votes",
      "outputs": [
        {
          "name": "",
          "type": "uint256"
        }
      ],
      "payable": false,
      "stateMutability": "view",
      "type": "function"
    },
    {
      "constant": true,
      "inputs": [],
      "name": "getIsVotingInitiated",
      "outputs": [
        {
          "name": "",
          "type": "bool"
        }
      ],
      "payable": false,
      "stateMutability": "view",
      "type": "function"
    },
    {
      "constant": true,
      "inputs": [],
      "name": "isContractStopped",
      "outputs": [
        {
          "name": "",
          "type": "bool"
        }
      ],
      "payable": false,
      "stateMutability": "view",
      "type": "function"
    }
  ],
  "bytecode": "0x60806040526000600260006101000a81548160ff02191690831515021790555060006003556000600460006101000a81548160ff02191690831515021790555034801561004b57600080fd5b5033600660006101000a81548173ffffffffffffffffffffffffffffffffffffffff021916908373ffffffffffffffffffffffffffffffffffffffff16021790555061079e8061009c6000396000f3fe60806040526004361061008e576000357c0100000000000000000000000000000000000000000000000000000000900463ffffffff168063189d6116146100935780634c0a6af0146100c25780636164b8fd146100d95780636456f88514610104578063665f92111461011b5780636eb3cec414610132578063aec2ccae14610161578063d2f42806146101ca575b600080fd5b34801561009f57600080fd5b506100a86101f5565b604051808215151515815260200191505060405180910390f35b3480156100ce57600080fd5b506100d761020c565b005b3480156100e557600080fd5b506100ee6102b9565b6040518082815260200191505060405180910390f35b34801561011057600080fd5b5061011961037b565b005b34801561012757600080fd5b506101306104fa565b005b34801561013e57600080fd5b50610147610679565b604051808215151515815260200191505060405180910390f35b34801561016d57600080fd5b506101b06004803603602081101561018457600080fd5b81019080803573ffffffffffffffffffffffffffffffffffffffff169060200190929190505050610690565b604051808215151515815260200191505060405180910390f35b3480156101d657600080fd5b506101df6106b0565b6040518082815260200191505060405180910390f35b6000600460009054906101000a900460ff16905090565b600660009054906101000a900473ffffffffffffffffffffffffffffffffffffffff1673ffffffffffffffffffffffffffffffffffffffff163373ffffffffffffffffffffffffffffffffffffffff1614151561026857600080fd5b600060035414151561027957600080fd5b600260009054906101000a900460ff1615151561029557600080fd5b426003819055506001600460006101000a81548160ff021916908315150217905550565b600060f06003540142101515156102cf57600080fd5b73__CandidateLib__________________________636652e62160006040518263ffffffff167c01000000000000000000000000000000000000000000000000000000000281526004018082815260200191505060206040518083038186803b15801561033b57600080fd5b505af415801561034f573d6000803e3d6000fd5b505050506040513d602081101561036557600080fd5b8101908080519060200190929190505050905090565b60011515600560003373ffffffffffffffffffffffffffffffffffffffff1673ffffffffffffffffffffffffffffffffffffffff16815260200190815260200160002060009054906101000a900460ff161515141515156103db57600080fd5b6000600354141515156103ed57600080fd5b60f0600354014210151561040057600080fd5b600260009054906101000a900460ff1615151561041c57600080fd5b73__CandidateLib__________________________63b2f9d6da60006040518263ffffffff167c01000000000000000000000000000000000000000000000000000000000281526004018082815260200191505060006040518083038186803b15801561048857600080fd5b505af415801561049c573d6000803e3d6000fd5b505050506001600560003373ffffffffffffffffffffffffffffffffffffffff1673ffffffffffffffffffffffffffffffffffffffff16815260200190815260200160002060006101000a81548160ff021916908315150217905550565b60011515600560003373ffffffffffffffffffffffffffffffffffffffff1673ffffffffffffffffffffffffffffffffffffffff16815260200190815260200160002060009054906101000a900460ff1615151415151561055a57600080fd5b60006003541415151561056c57600080fd5b60f0600354014210151561057f57600080fd5b600260009054906101000a900460ff1615151561059b57600080fd5b73__CandidateLib__________________________63b2f9d6da60016040518263ffffffff167c01000000000000000000000000000000000000000000000000000000000281526004018082815260200191505060006040518083038186803b15801561060757600080fd5b505af415801561061b573d6000803e3d6000fd5b505050506001600560003373ffffffffffffffffffffffffffffffffffffffff1673ffffffffffffffffffffffffffffffffffffffff16815260200190815260200160002060006101000a81548160ff021916908315150217905550565b6000600260009054906101000a900460ff16905090565b60056020528060005260406000206000915054906101000a900460ff1681565b600060f06003540142101515156106c657600080fd5b73__CandidateLib__________________________636652e62160016040518263ffffffff167c01000000000000000000000000000000000000000000000000000000000281526004018082815260200191505060206040518083038186803b15801561073257600080fd5b505af4158015610746573d6000803e3d6000fd5b505050506040513d602081101561075c57600080fd5b810190808051906020019092919050505090509056fea165627a7a72305820f7b081fa8a2c9616b79765fd7aab58de4699cfd02582b212523b9800a85930bf0029",
  "source": "pragma solidity ^0.5.0;\n\nlibrary CandidateLib{\n    struct Candidate{\n        uint256 votes;\n    }\n\n    function getVotes(Candidate storage candidate) public view returns(uint256) {\n        return candidate.votes;\n    }\n\n    function addVote(Candidate storage candidate) public {\n        candidate.votes++;\n    }\n}\n\ncontract Voting {\n   CandidateLib.Candidate candidate1;\n   CandidateLib.Candidate candidate2;\n    bool private stopped = false;\n\n   uint256 start = 0;\n   bool isVotingInitiated = false;\n\n   mapping(address => bool) public voted;\n\n   address owner;\n\n   constructor() public {\n        owner = msg.sender;\n    }\n\n    modifier stopInEmergency {\n        require(!stopped);\n        _;\n    }\n\n   modifier OnlyOwner(){\n        require(msg.sender == owner);\n        _;\n    }\n\n    function stopContract() OnlyOwner private{\n        stopped = !stopped;\n    }\n\n     modifier NotVoted(){\n        require(voted[msg.sender]!=true);\n        _;\n    }\n\n    modifier VoteOngoing{\n        require(now < start + 4 minutes);\n        _;\n    }\n\n    modifier VoteEnded{\n        require(now >= start + 4 minutes);\n        _;\n    }\n\n    modifier VoteStarted{\n        require(start!=0);\n        _;\n    }\n\n    modifier VoteNotStarted{\n        require(start==0);\n        _;\n    }\n\n   function startVote() OnlyOwner VoteNotStarted stopInEmergency public{\n        start = now;\n        isVotingInitiated = true;\n   }\n\n   function addCandidate1Vote() NotVoted VoteStarted VoteOngoing stopInEmergency public {\n        CandidateLib.addVote(candidate1);\n        voted[msg.sender] = true;\n   }\n\n   function addCandidate2Vote() NotVoted VoteStarted VoteOngoing stopInEmergency public{\n       CandidateLib.addVote(candidate2);\n       voted[msg.sender] = true;\n   }\n\n   function getCandidate1Votes() VoteEnded public view returns(uint256) {\n       return CandidateLib.getVotes(candidate1);\n   }\n\n   function getCandidate2Votes() VoteEnded public view  returns(uint256) {\n       return CandidateLib.getVotes(candidate2);\n   }\n\n    function getIsVotingInitiated() public view returns(bool){\n        return isVotingInitiated;\n    }\n\n    function isContractStopped() public view returns(bool){\n        return stopped;\n    }\n}",
  "sourcePath": "/media/fiveko/HDD/Documents/Blockchain-Development/Exam-Projects/Decentralized-Voting/contracts/Voting.sol",
  "compiler": {
    "name": "solc",
    "version": "0.5.0+commit.1d4f565a.Emscripten.clang"
  },
  "schemaVersion": "3.0.3",
  "updatedAt": "2019-04-04T19:42:06.600Z",
  "devdoc": {
    "methods": {}
  },
  "userdoc": {
    "methods": {}
  }
}